{
  "address": "0x1FE37a7367D5c2867641E2Cc8B45455Bc3D19A22",
  "abi": [
    {
      "inputs": [],
      "name": "NoProceeds",
      "type": "error"
    },
    {
      "inputs": [],
      "name": "NotApprovedForMarketplace",
      "type": "error"
    },
    {
      "inputs": [
        {
          "internalType": "address",
          "name": "nftAddres",
          "type": "address"
        },
        {
          "internalType": "uint256",
          "name": "tokenId",
          "type": "uint256"
        }
      ],
      "name": "NotListed",
      "type": "error"
    },
    {
      "inputs": [],
      "name": "NotOwner",
      "type": "error"
    },
    {
      "inputs": [
        {
          "internalType": "address",
          "name": "nftAddress",
          "type": "address"
        },
        {
          "internalType": "uint256",
          "name": "tokenId",
          "type": "uint256"
        },
        {
          "internalType": "uint256",
          "name": "price",
          "type": "uint256"
        }
      ],
      "name": "PriceNotMet",
      "type": "error"
    },
    {
      "anonymous": false,
      "inputs": [
        {
          "indexed": true,
          "internalType": "address",
          "name": "buyer",
          "type": "address"
        },
        {
          "indexed": true,
          "internalType": "address",
          "name": "nftAddress",
          "type": "address"
        },
        {
          "indexed": true,
          "internalType": "uint256",
          "name": "tokenId",
          "type": "uint256"
        },
        {
          "indexed": false,
          "internalType": "uint256",
          "name": "price",
          "type": "uint256"
        }
      ],
      "name": "ItemBought",
      "type": "event"
    },
    {
      "anonymous": false,
      "inputs": [
        {
          "indexed": true,
          "internalType": "address",
          "name": "seller",
          "type": "address"
        },
        {
          "indexed": true,
          "internalType": "address",
          "name": "nftAddress",
          "type": "address"
        },
        {
          "indexed": true,
          "internalType": "uint256",
          "name": "tokenId",
          "type": "uint256"
        },
        {
          "indexed": false,
          "internalType": "string",
          "name": "tokenUri",
          "type": "string"
        },
        {
          "indexed": false,
          "internalType": "uint256",
          "name": "price",
          "type": "uint256"
        }
      ],
      "name": "ListedItem",
      "type": "event"
    },
    {
      "inputs": [
        {
          "internalType": "address",
          "name": "nftAddress",
          "type": "address"
        },
        {
          "internalType": "uint256",
          "name": "tokenId",
          "type": "uint256"
        }
      ],
      "name": "buyItem",
      "outputs": [],
      "stateMutability": "payable",
      "type": "function"
    },
    {
      "inputs": [
        {
          "internalType": "address",
          "name": "nftAddress",
          "type": "address"
        },
        {
          "internalType": "uint256",
          "name": "tokenId",
          "type": "uint256"
        }
      ],
      "name": "getListing",
      "outputs": [
        {
          "components": [
            {
              "internalType": "address",
              "name": "seller",
              "type": "address"
            },
            {
              "internalType": "uint256",
              "name": "price",
              "type": "uint256"
            }
          ],
          "internalType": "struct BasicNFTMarketplace.Listing",
          "name": "",
          "type": "tuple"
        }
      ],
      "stateMutability": "view",
      "type": "function"
    },
    {
      "inputs": [
        {
          "internalType": "address",
          "name": "seller",
          "type": "address"
        }
      ],
      "name": "getProceeds",
      "outputs": [
        {
          "internalType": "uint256",
          "name": "",
          "type": "uint256"
        }
      ],
      "stateMutability": "view",
      "type": "function"
    },
    {
      "inputs": [
        {
          "internalType": "address",
          "name": "nftAddress",
          "type": "address"
        },
        {
          "internalType": "uint256",
          "name": "tokenId",
          "type": "uint256"
        },
        {
          "internalType": "string",
          "name": "tokenUri",
          "type": "string"
        }
      ],
      "name": "listItem",
      "outputs": [],
      "stateMutability": "nonpayable",
      "type": "function"
    },
    {
      "inputs": [],
      "name": "withdrawProceeds",
      "outputs": [],
      "stateMutability": "nonpayable",
      "type": "function"
    }
  ],
  "transactionHash": "0x3587172000192cfdc0870bcf94b4c12f427d1a4ed8e50c353d04350baa5b8b11",
  "args": [],
  "numDeployments": 1,
  "solcInputHash": "1814b0ef6cec5b2348dab4497a691fca",
  "bytecode": "0x608060405234801561001057600080fd5b50600160008190555061119b806100286000396000f3fe60806040526004361061004a5760003560e01c80631b4ce7c51461004f57806330cfeda91461007857806388700d1c146100b55780639038e693146100f25780639f37092a14610109575b600080fd5b34801561005b57600080fd5b5061007660048036038101906100719190610c9a565b610125565b005b34801561008457600080fd5b5061009f600480360381019061009a9190610d09565b610445565b6040516100ac9190610d45565b60405180910390f35b3480156100c157600080fd5b506100dc60048036038101906100d79190610d60565b61048e565b6040516100e99190610ded565b60405180910390f35b3480156100fe57600080fd5b50610107610559565b005b610123600480360381019061011e9190610d60565b6106cc565b005b828233600083905060008173ffffffffffffffffffffffffffffffffffffffff16636352211e856040518263ffffffff1660e01b81526004016101689190610d45565b602060405180830381865afa158015610185573d6000803e3d6000fd5b505050506040513d601f19601f820116820180604052508101906101a99190610e1d565b90508073ffffffffffffffffffffffffffffffffffffffff168373ffffffffffffffffffffffffffffffffffffffff1614610210576040517f30cd747100000000000000000000000000000000000000000000000000000000815260040160405180910390fd5b60008890503073ffffffffffffffffffffffffffffffffffffffff168173ffffffffffffffffffffffffffffffffffffffff1663081812fc8a6040518263ffffffff1660e01b81526004016102659190610d45565b602060405180830381865afa158015610282573d6000803e3d6000fd5b505050506040513d601f19601f820116820180604052508101906102a69190610e1d565b73ffffffffffffffffffffffffffffffffffffffff16146102f3576040517f4be3a2c500000000000000000000000000000000000000000000000000000000815260040160405180910390fd5b60405180604001604052803373ffffffffffffffffffffffffffffffffffffffff16815260200167016345785d8a0000815250600160008b73ffffffffffffffffffffffffffffffffffffffff1673ffffffffffffffffffffffffffffffffffffffff16815260200190815260200160002060008a815260200190815260200160002060008201518160000160006101000a81548173ffffffffffffffffffffffffffffffffffffffff021916908373ffffffffffffffffffffffffffffffffffffffff16021790555060208201518160010155905050878973ffffffffffffffffffffffffffffffffffffffff163373ffffffffffffffffffffffffffffffffffffffff167fa98b2da95f047337c69af084fb805291b43b364f8c51ccf19a70ac6647fb2e758a67016345785d8a0000604051610432929190610f0e565b60405180910390a4505050505050505050565b6000600260008373ffffffffffffffffffffffffffffffffffffffff1673ffffffffffffffffffffffffffffffffffffffff168152602001908152602001600020549050919050565b610496610a7c565b600160008473ffffffffffffffffffffffffffffffffffffffff1673ffffffffffffffffffffffffffffffffffffffff16815260200190815260200160002060008381526020019081526020016000206040518060400160405290816000820160009054906101000a900473ffffffffffffffffffffffffffffffffffffffff1673ffffffffffffffffffffffffffffffffffffffff1673ffffffffffffffffffffffffffffffffffffffff168152602001600182015481525050905092915050565b6000600260003373ffffffffffffffffffffffffffffffffffffffff1673ffffffffffffffffffffffffffffffffffffffff168152602001908152602001600020549050600081116105d7576040517fc4d8fa8700000000000000000000000000000000000000000000000000000000815260040160405180910390fd5b6000600260003373ffffffffffffffffffffffffffffffffffffffff1673ffffffffffffffffffffffffffffffffffffffff1681526020019081526020016000208190555060003373ffffffffffffffffffffffffffffffffffffffff168260405161064290610f6f565b60006040518083038185875af1925050503d806000811461067f576040519150601f19603f3d011682016040523d82523d6000602084013e610684565b606091505b50509050806106c8576040517f08c379a00000000000000000000000000000000000000000000000000000000081526004016106bf90610fd0565b60405180910390fd5b5050565b81816000600160008473ffffffffffffffffffffffffffffffffffffffff1673ffffffffffffffffffffffffffffffffffffffff16815260200190815260200160002060008381526020019081526020016000206040518060400160405290816000820160009054906101000a900473ffffffffffffffffffffffffffffffffffffffff1673ffffffffffffffffffffffffffffffffffffffff1673ffffffffffffffffffffffffffffffffffffffff168152602001600182015481525050905060008160200151116107d85782826040517f6831488c0000000000000000000000000000000000000000000000000000000081526004016107cf929190610fff565b60405180910390fd5b60026000540361081d576040517f08c379a000000000000000000000000000000000000000000000000000000000815260040161081490611074565b60405180910390fd5b60026000819055506000600160008773ffffffffffffffffffffffffffffffffffffffff1673ffffffffffffffffffffffffffffffffffffffff16815260200190815260200160002060008681526020019081526020016000206040518060400160405290816000820160009054906101000a900473ffffffffffffffffffffffffffffffffffffffff1673ffffffffffffffffffffffffffffffffffffffff1673ffffffffffffffffffffffffffffffffffffffff1681526020016001820154815250509050806020015134101561093557858582602001516040517f7c93456500000000000000000000000000000000000000000000000000000000815260040161092c93929190611094565b60405180910390fd5b3460026000836000015173ffffffffffffffffffffffffffffffffffffffff1673ffffffffffffffffffffffffffffffffffffffff168152602001908152602001600020600082825461098891906110fa565b925050819055508573ffffffffffffffffffffffffffffffffffffffff166342842e0e826000015133886040518463ffffffff1660e01b81526004016109d09392919061112e565b600060405180830381600087803b1580156109ea57600080fd5b505af11580156109fe573d6000803e3d6000fd5b50505050848673ffffffffffffffffffffffffffffffffffffffff163373ffffffffffffffffffffffffffffffffffffffff167f263223b1dd81e51054a4e6f791d45a4a1ddb4aadcd93a2dfd892615c3fdac1878460200151604051610a649190610d45565b60405180910390a45060016000819055505050505050565b6040518060400160405280600073ffffffffffffffffffffffffffffffffffffffff168152602001600081525090565b6000604051905090565b600080fd5b600080fd5b600073ffffffffffffffffffffffffffffffffffffffff82169050919050565b6000610aeb82610ac0565b9050919050565b610afb81610ae0565b8114610b0657600080fd5b50565b600081359050610b1881610af2565b92915050565b6000819050919050565b610b3181610b1e565b8114610b3c57600080fd5b50565b600081359050610b4e81610b28565b92915050565b600080fd5b600080fd5b6000601f19601f8301169050919050565b7f4e487b7100000000000000000000000000000000000000000000000000000000600052604160045260246000fd5b610ba782610b5e565b810181811067ffffffffffffffff82111715610bc657610bc5610b6f565b5b80604052505050565b6000610bd9610aac565b9050610be58282610b9e565b919050565b600067ffffffffffffffff821115610c0557610c04610b6f565b5b610c0e82610b5e565b9050602081019050919050565b82818337600083830152505050565b6000610c3d610c3884610bea565b610bcf565b905082815260208101848484011115610c5957610c58610b59565b5b610c64848285610c1b565b509392505050565b600082601f830112610c8157610c80610b54565b5b8135610c91848260208601610c2a565b91505092915050565b600080600060608486031215610cb357610cb2610ab6565b5b6000610cc186828701610b09565b9350506020610cd286828701610b3f565b925050604084013567ffffffffffffffff811115610cf357610cf2610abb565b5b610cff86828701610c6c565b9150509250925092565b600060208284031215610d1f57610d1e610ab6565b5b6000610d2d84828501610b09565b91505092915050565b610d3f81610b1e565b82525050565b6000602082019050610d5a6000830184610d36565b92915050565b60008060408385031215610d7757610d76610ab6565b5b6000610d8585828601610b09565b9250506020610d9685828601610b3f565b9150509250929050565b610da981610ae0565b82525050565b610db881610b1e565b82525050565b604082016000820151610dd46000850182610da0565b506020820151610de76020850182610daf565b50505050565b6000604082019050610e026000830184610dbe565b92915050565b600081519050610e1781610af2565b92915050565b600060208284031215610e3357610e32610ab6565b5b6000610e4184828501610e08565b91505092915050565b600081519050919050565b600082825260208201905092915050565b60005b83811015610e84578082015181840152602081019050610e69565b60008484015250505050565b6000610e9b82610e4a565b610ea58185610e55565b9350610eb5818560208601610e66565b610ebe81610b5e565b840191505092915050565b6000819050919050565b6000819050919050565b6000610ef8610ef3610eee84610ec9565b610ed3565b610b1e565b9050919050565b610f0881610edd565b82525050565b60006040820190508181036000830152610f288185610e90565b9050610f376020830184610eff565b9392505050565b600081905092915050565b50565b6000610f59600083610f3e565b9150610f6482610f49565b600082019050919050565b6000610f7a82610f4c565b9150819050919050565b7f5472616e73666572206661696c65640000000000000000000000000000000000600082015250565b6000610fba600f83610e55565b9150610fc582610f84565b602082019050919050565b60006020820190508181036000830152610fe981610fad565b9050919050565b610ff981610ae0565b82525050565b60006040820190506110146000830185610ff0565b6110216020830184610d36565b9392505050565b7f5265656e7472616e637947756172643a207265656e7472616e742063616c6c00600082015250565b600061105e601f83610e55565b915061106982611028565b602082019050919050565b6000602082019050818103600083015261108d81611051565b9050919050565b60006060820190506110a96000830186610ff0565b6110b66020830185610d36565b6110c36040830184610d36565b949350505050565b7f4e487b7100000000000000000000000000000000000000000000000000000000600052601160045260246000fd5b600061110582610b1e565b915061111083610b1e565b9250828201905080821115611128576111276110cb565b5b92915050565b60006060820190506111436000830186610ff0565b6111506020830185610ff0565b61115d6040830184610d36565b94935050505056fea2646970667358221220f3bd44b728236d830f1e1797a17f2a0701756ae987cb8c7a61145290082dad1264736f6c63430008110033",
  "devdoc": {
    "kind": "dev",
    "methods": {},
    "version": 1
  },
  "userdoc": {
    "kind": "user",
    "methods": {},
    "version": 1
  },
  "storageLayout": {
    "storage": [
      {
        "astId": 10,
        "contract": "contracts/BasicNFTMarketplace.sol:BasicNFTMarketplace",
        "label": "_status",
        "offset": 0,
        "slot": "0",
        "type": "t_uint256"
      },
      {
        "astId": 2004,
        "contract": "contracts/BasicNFTMarketplace.sol:BasicNFTMarketplace",
        "label": "s_listings",
        "offset": 0,
        "slot": "1",
        "type": "t_mapping(t_address,t_mapping(t_uint256,t_struct(Listing)1975_storage))"
      },
      {
        "astId": 2008,
        "contract": "contracts/BasicNFTMarketplace.sol:BasicNFTMarketplace",
        "label": "s_proceeds",
        "offset": 0,
        "slot": "2",
        "type": "t_mapping(t_address,t_uint256)"
      }
    ],
    "types": {
      "t_address": {
        "encoding": "inplace",
        "label": "address",
        "numberOfBytes": "20"
      },
      "t_mapping(t_address,t_mapping(t_uint256,t_struct(Listing)1975_storage))": {
        "encoding": "mapping",
        "key": "t_address",
        "label": "mapping(address => mapping(uint256 => struct BasicNFTMarketplace.Listing))",
        "numberOfBytes": "32",
        "value": "t_mapping(t_uint256,t_struct(Listing)1975_storage)"
      },
      "t_mapping(t_address,t_uint256)": {
        "encoding": "mapping",
        "key": "t_address",
        "label": "mapping(address => uint256)",
        "numberOfBytes": "32",
        "value": "t_uint256"
      },
      "t_mapping(t_uint256,t_struct(Listing)1975_storage)": {
        "encoding": "mapping",
        "key": "t_uint256",
        "label": "mapping(uint256 => struct BasicNFTMarketplace.Listing)",
        "numberOfBytes": "32",
        "value": "t_struct(Listing)1975_storage"
      },
      "t_struct(Listing)1975_storage": {
        "encoding": "inplace",
        "label": "struct BasicNFTMarketplace.Listing",
        "members": [
          {
            "astId": 1972,
            "contract": "contracts/BasicNFTMarketplace.sol:BasicNFTMarketplace",
            "label": "seller",
            "offset": 0,
            "slot": "0",
            "type": "t_address"
          },
          {
            "astId": 1974,
            "contract": "contracts/BasicNFTMarketplace.sol:BasicNFTMarketplace",
            "label": "price",
            "offset": 0,
            "slot": "1",
            "type": "t_uint256"
          }
        ],
        "numberOfBytes": "64"
      },
      "t_uint256": {
        "encoding": "inplace",
        "label": "uint256",
        "numberOfBytes": "32"
      }
    }
  }
}