{
  "address": "0x5FbDB2315678afecb367f032d93F642f64180aa3",
  "abi": [
    {
      "inputs": [],
      "name": "NotApprovedForMarketplace",
      "type": "error"
    },
    {
      "inputs": [
        {
          "internalType": "address",
          "name": "nftAddres",
          "type": "address"
        },
        {
          "internalType": "uint256",
          "name": "tokenId",
          "type": "uint256"
        }
      ],
      "name": "NotListed",
      "type": "error"
    },
    {
      "inputs": [],
      "name": "NotOwner",
      "type": "error"
    },
    {
      "inputs": [
        {
          "internalType": "address",
          "name": "nftAddress",
          "type": "address"
        },
        {
          "internalType": "uint256",
          "name": "tokenId",
          "type": "uint256"
        },
        {
          "internalType": "uint256",
          "name": "price",
          "type": "uint256"
        }
      ],
      "name": "PriceNotMet",
      "type": "error"
    },
    {
      "anonymous": false,
      "inputs": [
        {
          "indexed": true,
          "internalType": "address",
          "name": "buyer",
          "type": "address"
        },
        {
          "indexed": true,
          "internalType": "address",
          "name": "nftAddress",
          "type": "address"
        },
        {
          "indexed": true,
          "internalType": "uint256",
          "name": "tokenId",
          "type": "uint256"
        },
        {
          "indexed": false,
          "internalType": "uint256",
          "name": "price",
          "type": "uint256"
        }
      ],
      "name": "ItemBought",
      "type": "event"
    },
    {
      "anonymous": false,
      "inputs": [
        {
          "indexed": true,
          "internalType": "address",
          "name": "seller",
          "type": "address"
        },
        {
          "indexed": true,
          "internalType": "address",
          "name": "nftAddress",
          "type": "address"
        },
        {
          "indexed": true,
          "internalType": "uint256",
          "name": "tokenId",
          "type": "uint256"
        },
        {
          "indexed": false,
          "internalType": "string",
          "name": "tokenUri",
          "type": "string"
        },
        {
          "indexed": false,
          "internalType": "uint256",
          "name": "price",
          "type": "uint256"
        }
      ],
      "name": "ListedItem",
      "type": "event"
    },
    {
      "inputs": [
        {
          "internalType": "address",
          "name": "nftAddress",
          "type": "address"
        },
        {
          "internalType": "uint256",
          "name": "tokenId",
          "type": "uint256"
        }
      ],
      "name": "buyItem",
      "outputs": [],
      "stateMutability": "payable",
      "type": "function"
    },
    {
      "inputs": [
        {
          "internalType": "address",
          "name": "nftAddress",
          "type": "address"
        },
        {
          "internalType": "uint256",
          "name": "tokenId",
          "type": "uint256"
        }
      ],
      "name": "getListing",
      "outputs": [
        {
          "components": [
            {
              "internalType": "address",
              "name": "seller",
              "type": "address"
            },
            {
              "internalType": "uint256",
              "name": "price",
              "type": "uint256"
            }
          ],
          "internalType": "struct BasicNFTMarketplace.Listing",
          "name": "",
          "type": "tuple"
        }
      ],
      "stateMutability": "view",
      "type": "function"
    },
    {
      "inputs": [
        {
          "internalType": "address",
          "name": "nftAddress",
          "type": "address"
        },
        {
          "internalType": "uint256",
          "name": "tokenId",
          "type": "uint256"
        },
        {
          "internalType": "string",
          "name": "tokenUri",
          "type": "string"
        }
      ],
      "name": "listItem",
      "outputs": [],
      "stateMutability": "nonpayable",
      "type": "function"
    }
  ],
  "transactionHash": "0x36cb0da5aab8f4acff5075479439618489380fafd65fd347fcba334de00ff6e4",
  "args": [],
  "numDeployments": 1,
  "solcInputHash": "6c96022c5761be6a2d051e7dc71052a4",
  "bytecode": "0x608060405234801561001057600080fd5b506001600081905550610e55806100286000396000f3fe6080604052600436106100345760003560e01c80631b4ce7c51461003957806388700d1c146100625780639f37092a1461009f575b600080fd5b34801561004557600080fd5b50610060600480360381019061005b9190610a33565b6100bb565b005b34801561006e57600080fd5b5061008960048036038101906100849190610aa2565b6103db565b6040516100969190610b2f565b60405180910390f35b6100b960048036038101906100b49190610aa2565b6104a6565b005b828233600083905060008173ffffffffffffffffffffffffffffffffffffffff16636352211e856040518263ffffffff1660e01b81526004016100fe9190610b59565b602060405180830381865afa15801561011b573d6000803e3d6000fd5b505050506040513d601f19601f8201168201806040525081019061013f9190610b89565b90508073ffffffffffffffffffffffffffffffffffffffff168373ffffffffffffffffffffffffffffffffffffffff16146101a6576040517f30cd747100000000000000000000000000000000000000000000000000000000815260040160405180910390fd5b60008890503073ffffffffffffffffffffffffffffffffffffffff168173ffffffffffffffffffffffffffffffffffffffff1663081812fc8a6040518263ffffffff1660e01b81526004016101fb9190610b59565b602060405180830381865afa158015610218573d6000803e3d6000fd5b505050506040513d601f19601f8201168201806040525081019061023c9190610b89565b73ffffffffffffffffffffffffffffffffffffffff1614610289576040517f4be3a2c500000000000000000000000000000000000000000000000000000000815260040160405180910390fd5b60405180604001604052803373ffffffffffffffffffffffffffffffffffffffff16815260200167016345785d8a0000815250600260008b73ffffffffffffffffffffffffffffffffffffffff1673ffffffffffffffffffffffffffffffffffffffff16815260200190815260200160002060008a815260200190815260200160002060008201518160000160006101000a81548173ffffffffffffffffffffffffffffffffffffffff021916908373ffffffffffffffffffffffffffffffffffffffff16021790555060208201518160010155905050878973ffffffffffffffffffffffffffffffffffffffff163373ffffffffffffffffffffffffffffffffffffffff167fa98b2da95f047337c69af084fb805291b43b364f8c51ccf19a70ac6647fb2e758a67016345785d8a00006040516103c8929190610c7a565b60405180910390a4505050505050505050565b6103e3610815565b600260008473ffffffffffffffffffffffffffffffffffffffff1673ffffffffffffffffffffffffffffffffffffffff16815260200190815260200160002060008381526020019081526020016000206040518060400160405290816000820160009054906101000a900473ffffffffffffffffffffffffffffffffffffffff1673ffffffffffffffffffffffffffffffffffffffff1673ffffffffffffffffffffffffffffffffffffffff168152602001600182015481525050905092915050565b81816000600260008473ffffffffffffffffffffffffffffffffffffffff1673ffffffffffffffffffffffffffffffffffffffff16815260200190815260200160002060008381526020019081526020016000206040518060400160405290816000820160009054906101000a900473ffffffffffffffffffffffffffffffffffffffff1673ffffffffffffffffffffffffffffffffffffffff1673ffffffffffffffffffffffffffffffffffffffff168152602001600182015481525050905060008160200151116105b25782826040517f6831488c0000000000000000000000000000000000000000000000000000000081526004016105a9929190610cb9565b60405180910390fd5b6002600054036105f7576040517f08c379a00000000000000000000000000000000000000000000000000000000081526004016105ee90610d2e565b60405180910390fd5b60026000819055506000600260008773ffffffffffffffffffffffffffffffffffffffff1673ffffffffffffffffffffffffffffffffffffffff16815260200190815260200160002060008681526020019081526020016000206040518060400160405290816000820160009054906101000a900473ffffffffffffffffffffffffffffffffffffffff1673ffffffffffffffffffffffffffffffffffffffff1673ffffffffffffffffffffffffffffffffffffffff1681526020016001820154815250509050806020015134101561070f57858582602001516040517f7c93456500000000000000000000000000000000000000000000000000000000815260040161070693929190610d4e565b60405180910390fd5b34600160008282546107219190610db4565b925050819055508573ffffffffffffffffffffffffffffffffffffffff166342842e0e826000015133886040518463ffffffff1660e01b815260040161076993929190610de8565b600060405180830381600087803b15801561078357600080fd5b505af1158015610797573d6000803e3d6000fd5b50505050848673ffffffffffffffffffffffffffffffffffffffff163373ffffffffffffffffffffffffffffffffffffffff167f263223b1dd81e51054a4e6f791d45a4a1ddb4aadcd93a2dfd892615c3fdac18784602001516040516107fd9190610b59565b60405180910390a45060016000819055505050505050565b6040518060400160405280600073ffffffffffffffffffffffffffffffffffffffff168152602001600081525090565b6000604051905090565b600080fd5b600080fd5b600073ffffffffffffffffffffffffffffffffffffffff82169050919050565b600061088482610859565b9050919050565b61089481610879565b811461089f57600080fd5b50565b6000813590506108b18161088b565b92915050565b6000819050919050565b6108ca816108b7565b81146108d557600080fd5b50565b6000813590506108e7816108c1565b92915050565b600080fd5b600080fd5b6000601f19601f8301169050919050565b7f4e487b7100000000000000000000000000000000000000000000000000000000600052604160045260246000fd5b610940826108f7565b810181811067ffffffffffffffff8211171561095f5761095e610908565b5b80604052505050565b6000610972610845565b905061097e8282610937565b919050565b600067ffffffffffffffff82111561099e5761099d610908565b5b6109a7826108f7565b9050602081019050919050565b82818337600083830152505050565b60006109d66109d184610983565b610968565b9050828152602081018484840111156109f2576109f16108f2565b5b6109fd8482856109b4565b509392505050565b600082601f830112610a1a57610a196108ed565b5b8135610a2a8482602086016109c3565b91505092915050565b600080600060608486031215610a4c57610a4b61084f565b5b6000610a5a868287016108a2565b9350506020610a6b868287016108d8565b925050604084013567ffffffffffffffff811115610a8c57610a8b610854565b5b610a9886828701610a05565b9150509250925092565b60008060408385031215610ab957610ab861084f565b5b6000610ac7858286016108a2565b9250506020610ad8858286016108d8565b9150509250929050565b610aeb81610879565b82525050565b610afa816108b7565b82525050565b604082016000820151610b166000850182610ae2565b506020820151610b296020850182610af1565b50505050565b6000604082019050610b446000830184610b00565b92915050565b610b53816108b7565b82525050565b6000602082019050610b6e6000830184610b4a565b92915050565b600081519050610b838161088b565b92915050565b600060208284031215610b9f57610b9e61084f565b5b6000610bad84828501610b74565b91505092915050565b600081519050919050565b600082825260208201905092915050565b60005b83811015610bf0578082015181840152602081019050610bd5565b60008484015250505050565b6000610c0782610bb6565b610c118185610bc1565b9350610c21818560208601610bd2565b610c2a816108f7565b840191505092915050565b6000819050919050565b6000819050919050565b6000610c64610c5f610c5a84610c35565b610c3f565b6108b7565b9050919050565b610c7481610c49565b82525050565b60006040820190508181036000830152610c948185610bfc565b9050610ca36020830184610c6b565b9392505050565b610cb381610879565b82525050565b6000604082019050610cce6000830185610caa565b610cdb6020830184610b4a565b9392505050565b7f5265656e7472616e637947756172643a207265656e7472616e742063616c6c00600082015250565b6000610d18601f83610bc1565b9150610d2382610ce2565b602082019050919050565b60006020820190508181036000830152610d4781610d0b565b9050919050565b6000606082019050610d636000830186610caa565b610d706020830185610b4a565b610d7d6040830184610b4a565b949350505050565b7f4e487b7100000000000000000000000000000000000000000000000000000000600052601160045260246000fd5b6000610dbf826108b7565b9150610dca836108b7565b9250828201905080821115610de257610de1610d85565b5b92915050565b6000606082019050610dfd6000830186610caa565b610e0a6020830185610caa565b610e176040830184610b4a565b94935050505056fea2646970667358221220d6ce4a172354419c4613dd288f4050508609d3ff2624b1e6bc74dfc389e0b94264736f6c63430008110033",
  "devdoc": {
    "kind": "dev",
    "methods": {},
    "version": 1
  },
  "userdoc": {
    "kind": "user",
    "methods": {},
    "version": 1
  },
  "storageLayout": {
    "storage": [
      {
        "astId": 10,
        "contract": "contracts/BasicNFTMarketplace.sol:BasicNFTMarketplace",
        "label": "_status",
        "offset": 0,
        "slot": "0",
        "type": "t_uint256"
      },
      {
        "astId": 193,
        "contract": "contracts/BasicNFTMarketplace.sol:BasicNFTMarketplace",
        "label": "proceeds",
        "offset": 0,
        "slot": "1",
        "type": "t_uint256"
      },
      {
        "astId": 227,
        "contract": "contracts/BasicNFTMarketplace.sol:BasicNFTMarketplace",
        "label": "s_listings",
        "offset": 0,
        "slot": "2",
        "type": "t_mapping(t_address,t_mapping(t_uint256,t_struct(Listing)198_storage))"
      }
    ],
    "types": {
      "t_address": {
        "encoding": "inplace",
        "label": "address",
        "numberOfBytes": "20"
      },
      "t_mapping(t_address,t_mapping(t_uint256,t_struct(Listing)198_storage))": {
        "encoding": "mapping",
        "key": "t_address",
        "label": "mapping(address => mapping(uint256 => struct BasicNFTMarketplace.Listing))",
        "numberOfBytes": "32",
        "value": "t_mapping(t_uint256,t_struct(Listing)198_storage)"
      },
      "t_mapping(t_uint256,t_struct(Listing)198_storage)": {
        "encoding": "mapping",
        "key": "t_uint256",
        "label": "mapping(uint256 => struct BasicNFTMarketplace.Listing)",
        "numberOfBytes": "32",
        "value": "t_struct(Listing)198_storage"
      },
      "t_struct(Listing)198_storage": {
        "encoding": "inplace",
        "label": "struct BasicNFTMarketplace.Listing",
        "members": [
          {
            "astId": 195,
            "contract": "contracts/BasicNFTMarketplace.sol:BasicNFTMarketplace",
            "label": "seller",
            "offset": 0,
            "slot": "0",
            "type": "t_address"
          },
          {
            "astId": 197,
            "contract": "contracts/BasicNFTMarketplace.sol:BasicNFTMarketplace",
            "label": "price",
            "offset": 0,
            "slot": "1",
            "type": "t_uint256"
          }
        ],
        "numberOfBytes": "64"
      },
      "t_uint256": {
        "encoding": "inplace",
        "label": "uint256",
        "numberOfBytes": "32"
      }
    }
  }
}